{
  "contractName": "DAO",
  "abi": [
    {
      "inputs": [
        {
          "internalType": "address",
          "name": "_token",
          "type": "address"
        }
      ],
      "stateMutability": "nonpayable",
      "type": "constructor"
    },
    {
      "inputs": [],
      "name": "abc_token_contract",
      "outputs": [
        {
          "internalType": "address",
          "name": "",
          "type": "address"
        }
      ],
      "stateMutability": "view",
      "type": "function"
    },
    {
      "inputs": [],
      "name": "admin",
      "outputs": [
        {
          "internalType": "address",
          "name": "",
          "type": "address"
        }
      ],
      "stateMutability": "view",
      "type": "function"
    },
    {
      "inputs": [
        {
          "internalType": "address",
          "name": "_token",
          "type": "address"
        }
      ],
      "name": "updateTokenContract",
      "outputs": [],
      "stateMutability": "nonpayable",
      "type": "function"
    },
    {
      "inputs": [
        {
          "internalType": "uint256",
          "name": "_ballotId",
          "type": "uint256"
        },
        {
          "internalType": "uint256",
          "name": "_option",
          "type": "uint256"
        }
      ],
      "name": "vote",
      "outputs": [],
      "stateMutability": "nonpayable",
      "type": "function"
    },
    {
      "inputs": [
        {
          "internalType": "bytes32[]",
          "name": "_proposals",
          "type": "bytes32[]"
        },
        {
          "internalType": "uint256",
          "name": "_endTime",
          "type": "uint256"
        }
      ],
      "name": "createNewBallot",
      "outputs": [],
      "stateMutability": "nonpayable",
      "type": "function"
    },
    {
      "inputs": [
        {
          "internalType": "uint256",
          "name": "_ballotId",
          "type": "uint256"
        }
      ],
      "name": "getWinningProposal",
      "outputs": [
        {
          "internalType": "bytes32",
          "name": "_proposalName",
          "type": "bytes32"
        },
        {
          "internalType": "uint256",
          "name": "_votes",
          "type": "uint256"
        }
      ],
      "stateMutability": "view",
      "type": "function"
    }
  ],
  "bytecode": "0x608060405234801561001057600080fd5b50604051610a80380380610a808339818101604052602081101561003357600080fd5b810190808051906020019092919050505080600160006101000a81548173ffffffffffffffffffffffffffffffffffffffff021916908373ffffffffffffffffffffffffffffffffffffffff160217905550506109eb806100956000396000f3fe608060405234801561001057600080fd5b50600436106100625760003560e01c8063292ca166146100675780635e2e6b52146100b0578063989ced26146100e4578063a7c2145614610128578063b384abef146101ea578063f851a44014610222575b600080fd5b6100936004803603602081101561007d57600080fd5b8101908080359060200190929190505050610256565b604051808381526020018281526020019250505060405180910390f35b6100b8610305565b604051808273ffffffffffffffffffffffffffffffffffffffff16815260200191505060405180910390f35b610126600480360360208110156100fa57600080fd5b81019080803573ffffffffffffffffffffffffffffffffffffffff16906020019092919050505061032b565b005b6101e86004803603604081101561013e57600080fd5b810190808035906020019064010000000081111561015b57600080fd5b82018360208201111561016d57600080fd5b8035906020019184602083028401116401000000008311171561018f57600080fd5b919080806020026020016040519081016040528093929190818152602001838360200280828437600081840152601f19601f82011690508083019250505050505050919291929080359060200190929190505050610413565b005b6102206004803603604081101561020057600080fd5b81019080803590602001909291908035906020019092919050505061058f565b005b61022a610935565b604051808273ffffffffffffffffffffffffffffffffffffffff16815260200191505060405180910390f35b600080600060036000858152602001908152602001600020905060005b60028110156102fe5760008083600201838154811061028e57fe5b90600052602060002090600202016001015411156102ca578260020182815481106102b557fe5b90600052602060002090600202016001015490505b8260020182815481106102d957fe5b9060005260206000209060020201600001549450809350508080600101915050610273565b5050915091565b600160009054906101000a900473ffffffffffffffffffffffffffffffffffffffff1681565b60008054906101000a900473ffffffffffffffffffffffffffffffffffffffff1673ffffffffffffffffffffffffffffffffffffffff163373ffffffffffffffffffffffffffffffffffffffff16146103cf576040517f08c379a00000000000000000000000000000000000000000000000000000000081526004018080602001828103825260368152602001806109806036913960400191505060405180910390fd5b80600160006101000a81548173ffffffffffffffffffffffffffffffffffffffff021916908373ffffffffffffffffffffffffffffffffffffffff16021790555050565b60008054906101000a900473ffffffffffffffffffffffffffffffffffffffff1673ffffffffffffffffffffffffffffffffffffffff163373ffffffffffffffffffffffffffffffffffffffff16146104d4576040517f08c379a00000000000000000000000000000000000000000000000000000000081526004018080602001828103825260148152602001807f596f7520617265206e6f7420616e2061646d696e00000000000000000000000081525060200191505060405180910390fd5b600060026000815480929190600101919050559050600060036000838152602001908152602001600020905081816000018190555082816003018190555060005b600281101561058857604051806040016040528086838151811061053557fe5b60200260200101518152602001600081525082600201828154811061055657fe5b906000526020600020906002020160008201518160000155602082015181600101559050508080600101915050610515565b5050505050565b6103e8600160009054906101000a900473ffffffffffffffffffffffffffffffffffffffff1673ffffffffffffffffffffffffffffffffffffffff166370a08231336040518263ffffffff1660e01b8152600401808273ffffffffffffffffffffffffffffffffffffffff16815260200191505060206040518083038186803b15801561061b57600080fd5b505afa15801561062f573d6000803e3d6000fd5b505050506040513d602081101561064557600080fd5b810190808051906020019092919050505010156106ad576040517f08c379a000000000000000000000000000000000000000000000000000000000815260040180806020018281038252602681526020018061095a6026913960400191505060405180910390fd5b6003600083815260200190815260200160002060040160003373ffffffffffffffffffffffffffffffffffffffff1673ffffffffffffffffffffffffffffffffffffffff16815260200190815260200160002060009054906101000a900460ff1615610781576040517f08c379a00000000000000000000000000000000000000000000000000000000081526004018080602001828103825260118152602001807f596f7520616c726561647920766f74656400000000000000000000000000000081525060200191505060405180910390fd5b6002548211156107f9576040517f08c379a000000000000000000000000000000000000000000000000000000000815260040180806020018281038252601b8152602001807f496e76616c6c69642062616c6c6f742049442070726f7669646564000000000081525060200191505060405180910390fd5b42600360008481526020019081526020016000206003015410610884576040517f08c379a000000000000000000000000000000000000000000000000000000000815260040180806020018281038252601c8152602001807f566f74696e672073657373696f6e20616c726561647920656e6465640000000081525060200191505060405180910390fd5b60016003600084815260200190815260200160002060020182815481106108a757fe5b90600052602060002090600202016001016000828254019250508190555060016003600084815260200190815260200160002060040160003373ffffffffffffffffffffffffffffffffffffffff1673ffffffffffffffffffffffffffffffffffffffff16815260200190815260200160002060006101000a81548160ff0219169083151502179055505050565b60008054906101000a900473ffffffffffffffffffffffffffffffffffffffff168156fe596f7520646f206e6f74206861766520656e6f7567687420746f6b656e7320746f20766f7465596f7520646f206e6f74206861766520746865207065726d697373696f6e20746f2075706461746520746f6b656e2061646472657373a2646970667358221220e36f342d56cbcda08b4a54371180a3c48958780accb61ee7bded6f8d2acb4b1b64736f6c63430007060033",
  "immutableReferences": {},
  "source": "pragma solidity >= 0.6.0 < 0.8.0;\n\ninterface IERC20 {\n    function totalSupply() external view returns (uint256);\n    function balanceOf(address account) external view returns (uint256);\n    function transfer(address recipient, uint256 amount) external returns (bool);\n    function allowance(address owner, address spender) external view returns (uint256);\n    function approve(address spender, uint256 amount) external returns (bool);\n    function transferFrom(address sender, address recipient, uint256 amount) external returns (bool);\n    event Transfer(address indexed from, address indexed to, uint256 value);\n    event Approval(address indexed owner, address indexed spender, uint256 value);\n}\n\ncontract DAO{\n\n    address public admin;\n    address public abc_token_contract;\n    uint constant MINIMUM_AMOUNT = 1000;\n    uint private ballotCount;\n    mapping(uint => Ballot) ballots;\n\n    struct Proposal {\n        bytes32 name; \n        uint voteCount;\n    }\n\n    struct Ballot{\n        uint id;\n        string description;\n        Proposal[] proposals;\n        uint endTime;\n        mapping(address => bool) voted;\n    }\n\n    constructor(address _token){\n        abc_token_contract = _token;\n    }\n\n    function updateTokenContract(address _token) public {\n        require(msg.sender == admin, 'You do not have the permission to update token address');\n        abc_token_contract = _token;\n    }\n\n    function vote(uint _ballotId, uint _option) public {\n        require(IERC20(abc_token_contract).balanceOf(msg.sender) >= MINIMUM_AMOUNT, \"You do not have enought tokens to vote\");\n        require(! ballots[_ballotId].voted[msg.sender], \"You already voted\");\n        require(_ballotId <= ballotCount, \"Invallid ballot ID provided\");\n        require(ballots[_ballotId].endTime < block.timestamp, \"Voting session already ended\");\n        ballots[_ballotId].proposals[_option].voteCount+=1;\n        ballots[_ballotId].voted[msg.sender] = true;\n    }\n\n    function createNewBallot(bytes32[] memory _proposals, uint _endTime) public{\n        require(msg.sender == admin, \"You are not an admin\");\n        uint ballotId = ballotCount++;\n        Ballot storage ballot = ballots[ballotId];\n        ballot.id = ballotId;\n        ballot.endTime = _endTime;\n         for(uint i = 0; i < 2; i++){\n            ballot.proposals[i] = Proposal({name: _proposals[i], voteCount:0});\n        }\n    }\n\n    function getWinningProposal(uint _ballotId) public view returns(bytes32 _proposalName, uint _votes){\n        Ballot storage ballot = ballots[_ballotId];\n        for(uint i = 0; i <2; i++){\n            uint winningVoteCount = 0;\n            if(ballot.proposals[i].voteCount > winningVoteCount){\n                winningVoteCount = ballot.proposals[i].voteCount;\n            }\n            _proposalName = ballot.proposals[i].name;\n            _votes = winningVoteCount;\n        }\n        \n    }\n\n}",
  "sourcePath": "/home/anthler/Desktop/DAREAG/green-token/contracts/Dao.sol",
  "compiler": {
    "name": "solc",
    "version": "0.7.6+commit.7338295f.Emscripten.clang"
  },
  "schemaVersion": "3.3.4",
  "updatedAt": "2021-02-27T11:27:44.066Z",
  "devdoc": {
    "kind": "dev",
    "methods": {},
    "version": 1
  },
  "userdoc": {
    "kind": "user",
    "methods": {},
    "version": 1
  }
}