{
  "contractName": "Dao",
  "abi": [
    {
      "inputs": [
        {
          "internalType": "address",
          "name": "_token",
          "type": "address"
        }
      ],
      "stateMutability": "nonpayable",
      "type": "constructor"
    },
    {
      "inputs": [],
      "name": "abc_token_contract",
      "outputs": [
        {
          "internalType": "address",
          "name": "",
          "type": "address"
        }
      ],
      "stateMutability": "view",
      "type": "function"
    },
    {
      "inputs": [],
      "name": "admin",
      "outputs": [
        {
          "internalType": "address",
          "name": "",
          "type": "address"
        }
      ],
      "stateMutability": "view",
      "type": "function"
    },
    {
      "inputs": [
        {
          "internalType": "address",
          "name": "_token",
          "type": "address"
        }
      ],
      "name": "updateTokenContract",
      "outputs": [],
      "stateMutability": "nonpayable",
      "type": "function"
    },
    {
      "inputs": [
        {
          "internalType": "uint256",
          "name": "_ballotId",
          "type": "uint256"
        },
        {
          "internalType": "uint256",
          "name": "_option",
          "type": "uint256"
        }
      ],
      "name": "vote",
      "outputs": [],
      "stateMutability": "nonpayable",
      "type": "function"
    },
    {
      "inputs": [
        {
          "internalType": "bytes32[]",
          "name": "_proposals",
          "type": "bytes32[]"
        },
        {
          "internalType": "uint256",
          "name": "_endTime",
          "type": "uint256"
        }
      ],
      "name": "createNewBallot",
      "outputs": [],
      "stateMutability": "nonpayable",
      "type": "function"
    },
    {
      "inputs": [
        {
          "internalType": "uint256",
          "name": "_ballotId",
          "type": "uint256"
        }
      ],
      "name": "getWinningProposal",
      "outputs": [
        {
          "internalType": "bytes32",
          "name": "_proposalName",
          "type": "bytes32"
        },
        {
          "internalType": "uint256",
          "name": "_votes",
          "type": "uint256"
        }
      ],
      "stateMutability": "view",
      "type": "function"
    }
  ],
  "bytecode": "0x608060405234801561001057600080fd5b506040516106f63803806106f68339818101604052602081101561003357600080fd5b5051600180546001600160a01b0319166001600160a01b03909216919091179055610693806100636000396000f3fe608060405234801561001057600080fd5b50600436106100625760003560e01c8063292ca166146100675780635e2e6b521461009d578063989ced26146100c1578063a7c21456146100e9578063b384abef1461018e578063f851a440146101b1575b600080fd5b6100846004803603602081101561007d57600080fd5b50356101b9565b6040805192835260208301919091528051918290030190f35b6100a5610255565b604080516001600160a01b039092168252519081900360200190f35b6100e7600480360360208110156100d757600080fd5b50356001600160a01b0316610264565b005b6100e7600480360360408110156100ff57600080fd5b81019060208101813564010000000081111561011a57600080fd5b82018360208201111561012c57600080fd5b8035906020019184602083028401116401000000008311171561014e57600080fd5b91908080602002602001604051908101604052809392919081815260200183836020028082843760009201919091525092955050913592506102cf915050565b6100e7600480360360408110156101a457600080fd5b50803590602001356103b8565b6100a56105f2565b60008181526003602052604081208190815b600281101561024e576000808360020183815481106101e657fe5b90600052602060002090600202016001015411156102225782600201828154811061020d57fe5b90600052602060002090600202016001015490505b82600201828154811061023157fe5b6000918252602090912060029091020154945092506001016101cb565b5050915091565b6001546001600160a01b031681565b6000546001600160a01b031633146102ad5760405162461bcd60e51b81526004018080602001828103825260368152602001806106286036913960400191505060405180910390fd5b600180546001600160a01b0319166001600160a01b0392909216919091179055565b6000546001600160a01b03163314610325576040805162461bcd60e51b81526020600482015260146024820152732cb7ba9030b932903737ba1030b71030b236b4b760611b604482015290519081900360640190fd5b600280546001810190915560008181526003602081905260408220838155908101849055905b60028110156103b157604051806040016040528086838151811061036b57fe5b60200260200101518152602001600081525082600201828154811061038c57fe5b600091825260209182902083516002909202019081559101516001918201550161034b565b5050505050565b600154604080516370a0823160e01b815233600482015290516103e8926001600160a01b0316916370a08231916024808301926020929190829003018186803b15801561040457600080fd5b505afa158015610418573d6000803e3d6000fd5b505050506040513d602081101561042e57600080fd5b5051101561046d5760405162461bcd60e51b81526004018080602001828103825260268152602001806106026026913960400191505060405180910390fd5b600082815260036020908152604080832033845260040190915290205460ff16156104d3576040805162461bcd60e51b8152602060048201526011602482015270165bdd48185b1c9958591e481d9bdd1959607a1b604482015290519081900360640190fd5b60025482111561052a576040805162461bcd60e51b815260206004820152601b60248201527f496e76616c6c69642062616c6c6f742049442070726f76696465640000000000604482015290519081900360640190fd5b600082815260036020819052604090912001544211610590576040805162461bcd60e51b815260206004820152601c60248201527f566f74696e672073657373696f6e20616c726561647920656e64656400000000604482015290519081900360640190fd5b6000828152600360205260409020600201805460019190839081106105b157fe5b6000918252602080832060016002909302018201805490940190935593815260038252604080822033835260040190925220805460ff191690921790915550565b6000546001600160a01b03168156fe596f7520646f206e6f74206861766520656e6f7567687420746f6b656e7320746f20766f7465596f7520646f206e6f74206861766520746865207065726d697373696f6e20746f2075706461746520746f6b656e2061646472657373a26469706673582212206e1b8f01ca04bd32ba4a67134bee6271c81e109f46fddd87c40a2586f743354064736f6c63430007060033",
  "immutableReferences": {},
  "source": "pragma solidity >= 0.5.16 <=0.8.1;\n\ninterface IERC20 {\n    function totalSupply() external view returns (uint256);\n    function balanceOf(address account) external view returns (uint256);\n    function transfer(address recipient, uint256 amount) external returns (bool);\n    function allowance(address owner, address spender) external view returns (uint256);\n    function approve(address spender, uint256 amount) external returns (bool);\n    function transferFrom(address sender, address recipient, uint256 amount) external returns (bool);\n    event Transfer(address indexed from, address indexed to, uint256 value);\n    event Approval(address indexed owner, address indexed spender, uint256 value);\n}\n\ncontract Dao{\n\n    address public admin;\n    address public abc_token_contract;\n    uint constant MINIMUM_AMOUNT = 1000;\n    uint private ballotCount;\n    mapping(uint => Ballot) ballots;\n\n    struct Proposal {\n        bytes32 name; \n        uint voteCount;\n    }\n\n    struct Ballot{\n        uint id;\n        string description;\n        Proposal[] proposals;\n        uint endTime;\n        mapping(address => bool) voted;\n    }\n\n    constructor(address _token){\n        abc_token_contract = _token;\n    }\n\n    function updateTokenContract(address _token) public {\n        require(msg.sender == admin, 'You do not have the permission to update token address');\n        abc_token_contract = _token;\n    }\n\n    function vote(uint _ballotId, uint _option) public {\n        require(IERC20(abc_token_contract).balanceOf(msg.sender) >= MINIMUM_AMOUNT, \"You do not have enought tokens to vote\");\n        require(! ballots[_ballotId].voted[msg.sender], \"You already voted\");\n        require(_ballotId <= ballotCount, \"Invallid ballot ID provided\");\n        require(ballots[_ballotId].endTime < block.timestamp, \"Voting session already ended\");\n        ballots[_ballotId].proposals[_option].voteCount+=1;\n        ballots[_ballotId].voted[msg.sender] = true;\n    }\n\n    function createNewBallot(bytes32[] memory _proposals, uint _endTime) public{\n        require(msg.sender == admin, \"You are not an admin\");\n        uint ballotId = ballotCount++;\n        Ballot storage ballot = ballots[ballotId];\n        ballot.id = ballotId;\n        ballot.endTime = _endTime;\n         for(uint i = 0; i < 2; i++){\n            ballot.proposals[i] = Proposal({name: _proposals[i], voteCount:0});\n        }\n    }\n\n    function getWinningProposal(uint _ballotId) public view returns(bytes32 _proposalName, uint _votes){\n        Ballot storage ballot = ballots[_ballotId];\n        for(uint i = 0; i <2; i++){\n            uint winningVoteCount = 0;\n            if(ballot.proposals[i].voteCount > winningVoteCount){\n                winningVoteCount = ballot.proposals[i].voteCount;\n            }\n            _proposalName = ballot.proposals[i].name;\n            _votes = winningVoteCount;\n        }\n        \n    }\n\n}",
  "sourcePath": "/home/anthler/Desktop/DAREAG/green-token/contracts/Dao.sol",
  "compiler": {
    "name": "solc",
    "version": "0.7.6+commit.7338295f.Emscripten.clang"
  },
  "schemaVersion": "3.2.0",
  "updatedAt": "2021-02-25T14:34:51.909Z",
  "devdoc": {
    "kind": "dev",
    "methods": {},
    "version": 1
  },
  "userdoc": {
    "kind": "user",
    "methods": {},
    "version": 1
  }
}